S00C000079616B312E73726563A2
S113000045C0000060C000005EC000005CC000008D
S11300105AC0000058C0000056C00000D3C20000FF
S1130020E5C2000050C000004EC000004CC00000FB
S11300304AC0000048C0000046C0000044C00000A0
S113004042C0000040C000003EC000003CC00000B0
S11300503AC0000038C0000036C0000034C00000C0
S113006032C0000030C000002EC000002CC00000D0
S11300702AC0000028C0000026C0000024C00000E0
S113008022C0000020C000001EC0000011241FBEBA
S1130090CFEFD0E1DEBFCDBF11E0A0E0B1E0E8EDED
S11300A0FDE000E00BBF02C007900D92A033B10742
S11300B0D9F721E0A0E3B1E001C01D92A534B20755
S11300C0E1F7B8D287C69CCFCF93DF9300D0CDB7EA
S11300D0DEB7807F982F9C60998388608A8342E092
S11300E050E0BE016F5F7F4F80910001F3D1811119
S11300F0F6CF0F900F90DF91CF910895CF93DF93B8
S113010000D000D0CDB7DEB7982F907F292F2C6078
S1130110298398609A8320E1829FC0011124982F3B
S11301209C609B8388608C8344E050E0BE016F5FD9
S11301307F4F80910001CED18111F6CF0F900F90A7
S11301400F900F90DF91CF91089589D12FEF89E619
S113015098E1215080409040E1F700C0000080E326
S1130160B3DF8FE19EE40197F1F700C0000080E364
S1130170ABDF8FE891E00197F1F700C0000080E366
S1130180A3DF8FE891E00197F1F700C0000080E25F
S11301909BDF8FE891E00197F1F700C0000088E24F
S11301A0ADDF87EC90E00197F1F700C0000088E034
S11301B0A5DF87EC90E00197F1F700C0000081E033
S11301C09DDF8FED9EE20197F1F700C0000086E00D
S11301D095DF87EC90E00197F1F700C000008CE018
S11301E08DDF87EC90E00197F1F700C000000895DF
S11301F0CF93DF9300D000D0CDB7DEB7982F907F98
S1130200292F2D60298399609A8320E1829FC00160
S11302101124982F9D609B8389608C8344E050E077
S1130220BE016F5F7F4F8091000154D18111F6CFE1
S11302300F900F900F900F90DF91CF91089590E45D
S1130240899F600D1124862F806858CF0895CF931D
S1130250DF93EA01F4DF8881882329F02196C8DF3F
S113026089918111FCCFDF91CF910895EBE9F0E002
S1130270908195FFFDCF80939C000895CF92DF92EB
S1130280EF92FF926B017C0120E137E240E050E005
S1130290A4D280E3820FEADFC701B60160717772EE
S11302A08827992728EE33E040E050E096D280E397
S11302B0820FDCDFC701B601687E73708827992737
S11302C024E630E040E050E088D280E3820FCEDFC5
S11302D0C701B60164767727882799272AE030E09A
S11302E040E050E07AD280E3820FC0DFD701C6013C
S11302F08A709927AA27BB27805DB8DFFF90EF900B
S1130300DF90CF900895CF92DF92EF92FF9240E278
S113031050E0C12CD12C7601D89AD998C899FECF37
S113032028E130E080E090E0DC01D99A880F991F41
S1130330AA1FBB1FD998C89B03C00196A11DB11D5C
S11303402150310991F7D99AD998A058C80ED91ECD
S1130350EA1EFB1E41505109F9F6689414F8F6940C
S1130360E794D794C7941694D1F780913001909173
S11303703101892B71F4C0923201D0923301E092A1
S11303803401F092350181E090E090933101809343
S113039030018091320190913301A0913401B091E8
S11303A035018C159D05AE05BF0588F48091320199
S11303B090913301A0913401B0913501A7019601C8
S11303C0281B390B4A0B5B0BCA01B90103C060E05F
S11303D070E0CB01FF90EF90DF90CF90089582E022
S11303E08ABB10929B0088E080939A0086E08093F9
S11303F09D001092980087E68093990084DFDC01C9
S1130400CB01B695A79597958795B695A79597959A
S113041087958093360190933701A0933801B09368
S113042039016091360170913701809138019091C2
S1130430390124DF8AE01ADF8DE018DFDFCF82E0A4
S11304408ABB10929B0088E080939A0086E0809398
S11304509D001092980087E680939900089588E49F
S1130460809370000895E4E7F0E0108294EA9083AA
S113047090819923ECF790917100987F9830A1F4C2
S11304808093730084E880937400E4E7F0E0808153
S11304908823ECF790917100987F983139F081E0CE
S11304A0903429F480E0089581E0089580E008956F
S11304B08093730084E880937400E4E7F0E0808123
S11304C08823ECF790917100987F81E0983209F4C9
S11304D080E00895CF92DF92FF920F931F93CF9302
S11304E0DF936B018A01BFDFF82E811117C001155C
S11304F0110581F0E6010C0D1D1D8991D9DF8111D3
S113050010C08FE99FE00197F1F700C000000C17BD
S11305101D0799F784E98093740005C0FF24F394C0
S113052002C0FF24F3948F2DDF91CF911F910F917F
S1130530FF90DF90CF9008958CE19CE09BBD8ABD35
S11305402FEF83ED90E3215080409040E1F700C00D
S1130550000088EE93E09BBD8ABD2FEF83ED90E30E
S1130560215080409040E1F700C0000008958CE1E4
S11305709CE099BD88BD2FEF83ED90E3215080402E
S11305809040E1F700C0000088EE93E099BD88BD7B
S11305902FEF83ED90E3215080409040E1F700C0BD
S11305A0000008958CE19CE090937900809378009A
S11305B02FEF83ED90E3215080409040E1F700C09D
S11305C0000008951F920F920FB60F9211248F937B
S11305D09F9381E090E090934401809343019F9125
S11305E08F910F900FBE0F901F9018951F920F922E
S11305F00FB60F9211248F939F9381E090E0909314
S11306004201809341019F918F910F900FBE0F90F3
S11306101F9018951BB888E18AB986E080939500ED
S11306201092900087E689B9789408955F9BFECF75
S11306308CB10895CF93DF93CDB7DEB7A0970FB6F3
S1130640F894DEBF0FBECDBF80EE87BB8AEA8FBDB4
S11306508AE18EBD8FE19EE497BD86BDDBDF1092FB
S11306606A0080EA8ABF80EC89BF7894E8DE6DDD99
S113067085E0E1E0F1E08E010F5F1F4FD8010190AA
S11306800D928A95E1F7FE0136968BE0DF011D920B
S11306908A95E9F78AE0E1E1F1E0DE015196019003
S11306A00D928A95E1F7FE017B9686E0DF011D92AB
S11306B08A95E9F7A80160E080E0C9DDAE014F5EEC
S11306C05F4F60E081E0C3DD41E251E060E081E042
S11306D0BEDD86E0E6E2F1E0D80101900D928A9554
S11306E0E1F7A80160E080E0B2DD80E38F9389E365
S11306F08F938CE291E09F938F931F930F938FD0EE
S1130700A80160E080E0A3DD6ADE0F900F900F90F7
S11307100F900F900F9001E010E06894EE24E1F840
S1130720F12C10923F0110923E0180913E01909174
S11307303F010197B1F77ADF809340018091400136
S1130740813649F410933D0100933C0110933B0121
S113075000933A010CC080914001823641F4109319
S11307603D0100933C01F0923B01E0923A018091FB
S11307703C0190913D010197A1F680913A0190913D
S11307803B018130910549F00297F1F480914101D8
S113079090914201892B81F016C080914301909180
S11307A04401892B39F4C8DE8091430190914401BE
S11307B0892BC9F3F7DE08C0DADE809141019091FC
S11307C04201892BC9F3EEDE1092440110924301D9
S11307D01092420110924101A4CFA1E21A2EAA1B49
S11307E0BB1BFD010DC0AA1FBB1FEE1FFF1FA217DD
S11307F0B307E407F50720F0A21BB30BE40BF50BDA
S1130800661F771F881F991F1A9469F76095709562
S1130810809590959B01AC01BD01CF0108950F9384
S11308201F93CF93DF93CDB7DEB72E970FB6F8940F
S1130830DEBF0FBECDBF0D891E8986E08C831A836F
S113084009838FEF9FE79E838D83AE01475E5F4FE1
S11308506F89788DCE01019610D0EF81F885E00F75
S1130860F11F10822E960FB6F894DEBF0FBECDBFD7
S1130870DF91CF911F910F9108952F923F924F9244
S11308805F926F927F928F929F92AF92BF92CF921C
S1130890DF92EF92FF920F931F93CF93DF93CDB725
S11308A0DEB72B970FB6F894DEBF0FBECDBF6C0139
S11308B07B018A01FC0117821682838181FFBFC1FB
S11308C0CE0101963C01F6019381F70193FD8591D8
S11308D093FF81917F01882309F4ADC1853239F4F6
S11308E093FD859193FF81917F01853221F4B601B7
S11308F090E0D6D1E8CF912C212C312CFFE1F315D7
S1130900D8F08B3279F038F4803279F08332A1F464
S1130910232D20611DC08D3261F0803369F4232DB5
S1130920216016C0832D8260382EE32DE4603E2EB4
S11309302AC0F32DF8601DC037FC2DC020ED280F10
S11309402A3040F08E32B9F436FC75C1232D206470
S1130950322E19C036FE06C08AE0989E200D11245E
S1130960922E11C0EAE02E9E200D1124222EF32D8A
S1130970F0623F2E08C08C3621F4832D8068382E17
S113098002C0883641F4F70193FD859193FF81916C
S11309907F018111B3CF982F9F7D9554933028F414
S11309A00C5F1F4F9FE399830DC0833631F083376B
S11309B071F0833509F055C020C0F8018081898326
S11309C00E5F1F4F88248394912C530112C0280179
S11309D0F2E04F0E511CF801A080B18036FE03C036
S11309E0692D70E002C06FEF7FEFC5014ED14C015D
S11309F08201F32DFF773F2E15C0280122E0420E1D
S1130A00511CF801A080B18036FE03C0692D70E04E
S1130A1002C06FEF7FEFC5012DD14C01F32DF068BB
S1130A203F2E820133FC19C0822D90E0881699066E
S1130A30A0F4B60180E290E033D12A94F5CFF50119
S1130A4037FC859137FE81915F01B60190E028D192
S1130A5021102A9421E0821A91088114910479F7D3
S1130A60E1C0843611F0893639F5F80137FE07C044
S1130A7060817181828193810C5F1F4F08C0608106
S1130A807181072E000C880B990B0E5F1F4FF32DFD
S1130A90FF763F2E97FF09C09095809570956195DC
S1130AA07F4F8F4F9F4FF0683F2E2AE030E0A30125
S1130AB033D1882E861844C0853731F4232D2F7EF8
S1130AC0B22E2AE030E025C0932D997FB92E8F36BF
S1130AD0C1F018F4883579F0AEC0803719F0883742
S1130AE021F0A9C0E92FE061BE2EB4FE0DC0FB2D9C
S1130AF0F460BF2E09C034FE0AC0292F2660B22E2E
S1130B0006C028E030E005C020E130E002C020E16A
S1130B1032E0F801B7FE07C0608171818281938160
S1130B200C5F1F4F06C06081718180E090E00E5F12
S1130B301F4FA301F1D0882E8618FB2DFF773F2E7F
S1130B4036FE0DC0232D2E7FA22E891458F434FEB8
S1130B500BC032FC09C0832D8E7EA82E05C0B82C94
S1130B60A32C03C0B82C01C0B92CA4FE0FC0FE01F5
S1130B70E80DF11D8081803321F49A2D997EA92EF0
S1130B8009C0A2FE06C0B394B39404C08A2D86782B
S1130B9009F0B394A3FC10C0A0FE06C0B21480F404
S1130BA0280C922C9B180DC0B21458F4B60180E2A4
S1130BB090E076D0B394F8CFB21418F42B1802C096
S1130BC0982C212CA4FE0FC0B60180E390E068D0DD
S1130BD0A2FE16C0A1FC03C088E790E002C088E52D
S1130BE090E0B6010CC08A2D867851F0A1FE02C0B7
S1130BF08BE201C080E2A7FC8DE2B60190E050D008
S1130C00891430F4B60180E390E04AD09A94F8CF86
S1130C108A94F301E80DF11D8081B60190E040D083
S1130C208110F6CF222009F44ECEB60180E290E086
S1130C3037D02A94F7CFF6018681978102C08FEFCF
S1130C409FEF2B960FB6F894DEBF0FBECDBFDF919A
S1130C50CF911F910F91FF90EF90DF90CF90BF90B5
S1130C60AF909F908F907F906F905F904F903F9048
S1130C702F900895FC010590615070400110D8F741
S1130C80809590958E0F9F1F0895FC0161507040D0
S1130C9001900110D8F7809590958E0F9F1F0895AD
S1130CA00F931F93CF93DF93FB01238121FD03C097
S1130CB08FEF9FEF2CC022FF16C0468157812481FD
S1130CC035814217530744F4A081B1819D012F5F00
S1130CD03F4F318320838C93268137812F5F3F4F91
S1130CE03783268314C08B01EC01FB010084F1855A
S1130CF0E02D0995892BE1F6D80116968D919C91EA
S1130D001797019617969C938E931697CE01DF91B1
S1130D10CF911F910F910895FA01AA27283051F11C
S1130D20203181F1E8946F936E7F6E5F7F4F8F4F18
S1130D309F4FAF4FB1E03ED0B4E03CD0670F781F77
S1130D40891F9A1FA11D680F791F8A1F911DA11D5C
S1130D506A0F711D811D911DA11D20D009F4689495
S1130D603F912AE0269F11243019305D3193DEF63D
S1130D70CF010895462F4770405D4193B3E00FD0F3
S1130D80C9F7F6CF462F4F70405D4A3318F0495DDE
S1130D9031FD4052419302D0A9F7EACFB4E0A695C1
S1130DA09795879577956795BA95C9F700976105E3
S1130DB0710508959B01AC010A2E06945795479539
S1130DC037952795BA95C9F7620F731F841F951F2E
S10B0DD0A01D0895F894FFCF63
S1130DD84E313233340000000000000000000000EF
S1130DE80041546D6567613132380000000000002D
S1130DF800746573740031313131310025640000A9
S9030000FC
