S00C000079616B312E73726563A2
S113000045C0000060C000005EC000005CC000008D
S11300105AC0000058C0000056C00000EAC10000E9
S1130020FCC1000050C000004EC000004CC00000E5
S11300304AC0000048C0000046C0000044C00000A0
S113004042C0000040C00000FCC100003CC00000F1
S11300503AC0000038C0000036C0000034C00000C0
S113006032C0000030C000002EC000002CC00000D0
S11300702AC0000028C0000026C0000024C00000E0
S113008022C0000020C000001EC0000011241FBEBA
S1130090CFEFD0E1DEBFCDBF11E0A0E0B1E0E0ECF6
S11300A0FCE000E00BBF02C007900D92A432B10740
S11300B0D9F721E0A4E2B1E001C01D92A433B20754
S11300C0E1F737D2FBC59CCFCF93DF9300D0CDB7F8
S11300D0DEB7807F982F9C60998388608A8342E092
S11300E050E0BE016F5F7F4F809100010AD1811102
S11300F0F6CF0F900F90DF91CF910895CF93DF93B8
S113010000D000D0CDB7DEB7982F907F292F2C6078
S1130110298398609A8320E1829FC0011124982F3B
S11301209C609B8388608C8344E050E0BE016F5FD9
S11301307F4F80910001E5D08111F6CF0F900F9091
S11301400F900F90DF91CF910895A0D02FEF89E603
S113015098E1215080409040E1F700C0000080E326
S1130160B3DF8FE19EE40197F1F700C0000080E364
S1130170ABDF8FE891E00197F1F700C0000080E366
S1130180A3DF8FE891E00197F1F700C0000080E25F
S11301909BDF8FE891E00197F1F700C0000088E24F
S11301A0ADDF87EC90E00197F1F700C0000088E034
S11301B0A5DF87EC90E00197F1F700C0000081E033
S11301C09DDF8FED9EE20197F1F700C0000086E00D
S11301D095DF87EC90E00197F1F700C000008CE018
S11301E08DDF87EC90E00197F1F700C000000895DF
S11301F0CF93DF9300D000D0CDB7DEB7982F907F98
S1130200292F2D60298399609A8320E1829FC00160
S11302101124982F9D609B8389608C8344E050E077
S1130220BE016F5F7F4F809100016BD08111F6CFCB
S11302300F900F900F900F90DF91CF91089590E45D
S1130240899F600D1124862F806858CF0895CF931D
S1130250DF93EA01F4DF8881882329F02196C8DF3F
S113026089918111FCCFDF91CF91089582E08ABBFF
S113027010929B0088E080939A0086E080939D0012
S11302801092980087E680939900089588E48093FB
S113029070000895E4E7F0E0108294EA908390817E
S11302A09923ECF790917100987F9830A1F4809392
S11302B0730084E880937400E4E7F0E0808188238D
S11302C0ECF790917100987F983139F081E0903487
S11302D029F480E0089581E0089580E008958093F2
S11302E0730084E880937400E4E7F0E0808188235D
S11302F0ECF790917100987F81E0983209F480E0E6
S11303000895CF92DF92FF920F931F93CF93DF93C1
S11303106B018A01BFDFF82E811117C00115110589
S113032081F0E6010C0D1D1D8991D9DF811110C0EA
S11303308FE99FE00197F1F700C000000C171D073B
S113034099F784E98093740005C0FF24F39402C0F4
S1130350FF24F3948F2DDF91CF911F910F91FF9084
S1130360DF90CF9008958CE19CE09BBD8ABD2FEF78
S113037083ED90E3215080409040E1F700C00000FD
S113038088EE93E09BBD8ABD2FEF83ED90E321506F
S113039080409040E1F700C0000008958CE19CE0AB
S11303A099BD88BD2FEF83ED90E3215080409040AC
S11303B0E1F700C0000088EE93E099BD88BD2FEFFF
S11303C083ED90E3215080409040E1F700C00000AD
S11303D008958CE19CE090937900809378002FEF4E
S11303E083ED90E3215080409040E1F700C000008D
S11303F008951F920F920FB60F9211248F939F931B
S113040081E090E090933301809332019F918F912A
S11304100F900FBE0F901F9018951F920F920FB65A
S11304200F9211248F939F9381E090E09093310178
S1130430809330019F918F910F900FBE0F901F906A
S113044018951F920F920FB60F9211240BB60F92AC
S11304502F933F934F935F936F937F938F939F93C8
S1130460AF93BF93EF93FF938CB180932E01809150
S11304702E01823599F128F4813499F08234E1F027
S113048031C08F3629F0823721F1833659F502C005
S1130490A0DF28C088EE93E09093790080937800E1
S11304A021C081E090E090932B0180932A019093E6
S11304B029018093280116C081E090E090932B01DC
S11304C080932A0182E090E090932901809328018F
S11304D009C0109227011092260104C01092250130
S11304E010922401FF91EF91BF91AF919F918F9151
S11304F07F916F915F914F913F912F910F900BBE20
S11305000F900FBE0F901F9018951BB888E98AB9F9
S113051086E0809395001092900087E689B97894DC
S113052008955D9BFECF8CB908955F9BFECF8CB17F
S11305300895CF93DF93CDB7DEB7A0970FB6F894A5
S1130540DEBF0FBECDBF80EE87BB8AEA8FBD8AE1D6
S11305508EBD8FE19EE497BD86BDD7DF10926A0001
S113056080EA8ABF80EC89BF789480DEEEDD80E18A
S1130570E1E0F1E0DE01119601900D928A95E1F738
S113058080E390E09A8B898BFE0173968EE0DF0105
S11305901D928A95E9F7AE014F5F5F4F60E080E0FE
S11305A056DEAE014F5E5F4F60E081E050DE01E059
S11305B010E00F2EF2E1CF2EF1E0DF2EF02D7E01C0
S11305C0B1E1EB0EF11C6894AA24A1F8B12C1093AC
S11305D02D0100932C0180912C0190912D01019704
S11305E009F08EC0A2DF80932F0180912F01813604
S11305F049F410932B0100932A01109329010093CD
S113060028010CC080912F01823641F410932B01F4
S113061000932A01B0922901A092280180912A0115
S113062090912B01019799F68091280190912901CD
S11306308130910549F00297F1F480913001909155
S11306403101892B81F016C08091320190913301E0
S1130650892B39F488DE8091320190913301892B02
S1130660C9F3B7DE08C09ADE809130019091310160
S1130670892BC9F3AEDE8091320190913301019749
S113068049F48091260190912701019690932701C6
S1130690809326018091300190913101019749F4B2
S11306A080912401909125010196909325018093D6
S11306B024012091240130912501809126019091FB
S11306C027013F932F939F938F93DF92CF92FF92B3
S11306D0EF9219D0A70160E081E0B9DD10923301F7
S11306E010923201109231011092300110922B01BC
S11306F010922A010FB6F894DEBF0FBECDBF67CFAC
S11307008EE60FDF64CF0F931F93CF93DF93CDB7A4
S1130710DEB72E970FB6F894DEBF0FBECDBF0D899E
S11307201E8986E08C831A8309838FEF9FE79E835B
S11307308D83AE01475E5F4F6F89788DCE01019640
S113074010D0EF81F885E00FF11F10822E960FB6BE
S1130750F894DEBF0FBECDBFDF91CF911F910F91F3
S113076008952F923F924F925F926F927F928F9251
S11307709F92AF92BF92CF92DF92EF92FF920F932C
S11307801F93CF93DF93CDB7DEB72B970FB6F894B3
S1130790DEBF0FBECDBF6C017B018A01FC01178255
S11307A01682838181FFBFC1CE0101963C01F6010F
S11307B09381F70193FD859193FF81917F018823B4
S11307C009F4ADC1853239F493FD859193FF81918C
S11307D07F01853221F4B60190E0D6D1E8CF912C87
S11307E0212C312CFFE1F315D8F08B3279F038F459
S11307F0803279F08332A1F4232D20611DC08D3223
S113080061F0803369F4232D216016C0832D82604A
S1130810382EE32DE4603E2E2AC0F32DF8601DC06F
S113082037FC2DC020ED280F2A3040F08E32B9F469
S113083036FC75C1232D2064322E19C036FE06C045
S11308408AE0989E200D1124922E11C0EAE02E9E7B
S1130850200D1124222EF32DF0623F2E08C08C3679
S113086021F4832D8068382E02C0883641F4F701C4
S113087093FD859193FF81917F018111B3CF982FCF
S11308809F7D9554933028F40C5F1F4F9FE3998309
S11308900DC0833631F0833771F0833509F055C0CC
S11308A020C0F801808189830E5F1F4F88248394C0
S11308B0912C530112C02801F2E04F0E511CF80193
S11308C0A080B18036FE03C0692D70E002C06FEFD6
S11308D07FEFC5014ED14C018201F32DFF773F2EEE
S11308E015C0280122E0420E511CF801A080B180FD
S11308F036FE03C0692D70E002C06FEF7FEFC501C3
S11309002DD14C01F32DF0683F2E820133FC19C028
S1130910822D90E088169906A0F4B60180E290E05A
S113092033D12A94F5CFF50137FC859137FE8191B7
S11309305F01B60190E028D121102A9421E0821AA7
S113094091088114910479F7E1C0843611F0893655
S113095039F5F80137FE07C0608171818281938186
S11309600C5F1F4F08C060817181072E000C880B3B
S1130970990B0E5F1F4FF32DFF763F2E97FF09C093
S113098090958095709561957F4F8F4F9F4FF0683C
S11309903F2E2AE030E0A30133D1882E861844C0CC
S11309A0853731F4232D2F7EB22E2AE030E025C086
S11309B0932D997FB92E8F36C1F018F4883579F0CC
S11309C0AEC0803719F0883721F0A9C0E92FE06163
S11309D0BE2EB4FE0DC0FB2DF460BF2E09C034FE44
S11309E00AC0292F2660B22E06C028E030E005C0D8
S11309F020E130E002C020E132E0F801B7FE07C098
S1130A0060817181828193810C5F1F4F06C0608178
S1130A10718180E090E00E5F1F4FA301F1D0882E1A
S1130A208618FB2DFF773F2E36FE0DC0232D2E7F1B
S1130A30A22E891458F434FE0BC032FC09C0832D55
S1130A408E7EA82E05C0B82CA32C03C0B82C01C0E0
S1130A50B92CA4FE0FC0FE01E80DF11D8081803386
S1130A6021F49A2D997EA92E09C0A2FE06C0B39442
S1130A70B39404C08A2D867809F0B394A3FC10C003
S1130A80A0FE06C0B21480F4280C922C9B180DC052
S1130A90B21458F4B60180E290E076D0B394F8CF63
S1130AA0B21418F42B1802C0982C212CA4FE0FC0E9
S1130AB0B60180E390E068D0A2FE16C0A1FC03C09A
S1130AC088E790E002C088E590E0B6010CC08A2D6A
S1130AD0867851F0A1FE02C08BE201C080E2A7FC3F
S1130AE08DE2B60190E050D0891430F4B60180E371
S1130AF090E04AD09A94F8CF8A94F301E80DF11D5E
S1130B008081B60190E040D08110F6CF222009F414
S1130B104ECEB60180E290E037D02A94F7CFF601AA
S1130B208681978102C08FEF9FEF2B960FB6F894C2
S1130B30DEBF0FBECDBFDF91CF911F910F91FF900C
S1130B40EF90DF90CF90BF90AF909F908F907F9069
S1130B506F905F904F903F902F900895FC01059007
S1130B60615070400110D8F7809590958E0F9F1FAB
S1130B700895FC016150704001900110D8F78095F0
S1130B8090958E0F9F1F08950F931F93CF93DF931C
S1130B90FB01238121FD03C08FEF9FEF2CC022FFB7
S1130BA016C046815781248135814217530744F486
S1130BB0A081B1819D012F5F3F4F318320838C93AE
S1130BC0268137812F5F3F4F3783268314C08B01E3
S1130BD0EC01FB010084F185E02D0995892BE1F6F8
S1130BE0D80116968D919C911797019617969C9310
S1130BF08E931697CE01DF91CF911F910F91089597
S1130C00FA01AA27283051F1203181F1E8946F9339
S1130C106E7F6E5F7F4F8F4F9F4FAF4FB1E03ED0DF
S1130C20B4E03CD0670F781F891F9A1FA11D680F7D
S1130C30791F8A1F911DA11D6A0F711D811D911DB0
S1130C40A11D20D009F468943F912AE0269F112425
S1130C503019305D3193DEF6CF010895462F477089
S1130C60405D4193B3E00FD0C9F7F6CF462F4F70E4
S1130C70405D4A3318F0495D31FD4052419302D042
S1130C80A9F7EACFB4E0A6959795879577956795E8
S1130C90BA95C9F700976105710508959B01AC01E8
S1130CA00A2E06945795479537952795BA95C9F70F
S1130CB0620F731F841F951FA01D0895F894FFCF22
S1130CC04E4C484A20504A482053414D52545941B1
S1130CD04B0059414B303A2564202F2059414B3168
S1070CE03A25640049
S9030000FC
