S00C000079616B312E73726563A2
S113000045C00000AAC00000BCC000004FC00000F2
S11300104DC000004BC0000049C0000047C00000B4
S113002045C0000043C0000041C000003FC00000C4
S11300303DC000003BC0000039C0000037C00000D4
S113004035C0000033C0000031C000002FC00000E4
S11300502DC000002BC0000029C0000027C00000F4
S113006025C0000023C0000021C000001FC0000004
S11300701DC000001BC0000019C0000017C0000014
S113008015C0000013C0000011C0000011241FBEE1
S1130090CFEFD0E1DEBFCDBF21E0A0E0B1E001C0F1
S11300A01D92AB30B207E1F790D0FDC0A9CF82E03A
S11300B08ABB10929B0088E080939A0086E080932C
S11300C09D001092980087E68093990008958CE132
S11300D09CE09BBD8ABD2FEF83ED90E321508040CF
S11300E09040E1F700C0000088EE93E09BBD8ABD1C
S11300F02FEF83ED90E3215080409040E1F700C062
S1130100000008958CE19CE099BD88BD2FEF83ED3C
S113011090E3215080409040E1F700C0000088EE59
S113012093E099BD88BD2FEF83ED90E3215080408B
S11301309040E1F700C0000008958CE19CE09093AA
S11301407900809378002FEF83ED90E32150804075
S11301509040E1F700C0000008951F920F920FB67F
S11301600F9211248F939F9381E090E090930A0162
S1130170809309019F918F910F900FBE0F901F9054
S113018018951F920F920FB60F9211248F939F937D
S113019081E090E090930801809307019F918F91F3
S11301A00F900FBE0F901F9018951BB888E18AB965
S11301B086E0809395001092900087E689B9789440
S11301C008955F9BFECF8CB1089580EE87BB8AEAC9
S11301D08FBD8AE18EBD8FE19EE497BD86BDE5DFCC
S11301E08AE080936A001ABE83E089BF78945FDF57
S11301F0C1E0D0E002E010E080910401909105019B
S11302000197D1F7DEDF80930601809106018136E4
S113021041F4D0930301C0930201D0930101C09330
S1130220000180910601823641F4D0930301C0930A
S11302300201109301010093000180910201909149
S113024003010197C9F68091000190910101813069
S1130250910549F00297F1F480910701909108010A
S1130260892B81F016C08091090190910A01892B94
S113027039F42DDF8091090190910A01892BC9F38A
S11302805CDF08C03FDF8091070190910801892B52
S1130290C9F353DF10920A01109209011092080168
S10D02A010920701A9CFF894FFCFD4
S9030000FC
