:1000000045C0000060C000005EC000005CC0000091
:100010005AC0000058C0000056C00000EAC10000ED
:10002000FCC1000050C000004EC000004CC00000E9
:100030004AC0000048C0000046C0000044C00000A4
:1000400042C0000040C000003EC000003CC00000B4
:100050003AC0000038C0000036C0000034C00000C4
:1000600032C0000030C000002EC000002CC00000D4
:100070002AC0000028C0000026C0000024C00000E4
:1000800022C0000020C000001EC0000011241FBEBE
:10009000CFEFD0E1DEBFCDBF11E0A0E0B1E0ECEDED
:1000A000F5E000E00BBF02C007900D92AE32B10741
:1000B000D9F721E0AEE2B1E001C01D92A933B20749
:1000C000E1F7CFD189C29CCFCF93DF9300D0CDB7DA
:1000D000DEB7807F982F9C60998388608A8342E096
:1000E00050E0BE016F5F7F4F809100010AD1811106
:1000F000F6CF0F900F90DF91CF910895CF93DF93BC
:1001000000D000D0CDB7DEB7982F907F292F2C607C
:10011000298398609A8320E1829FC0011124982F3F
:100120009C609B8388608C8344E050E0BE016F5FDD
:100130007F4F80910001E5D08111F6CF0F900F9095
:100140000F900F90DF91CF910895A0D02FEF89E607
:1001500098E1215080409040E1F700C0000080E32A
:10016000B3DF8FE19EE40197F1F700C0000080E368
:10017000ABDF8FE891E00197F1F700C0000080E36A
:10018000A3DF8FE891E00197F1F700C0000080E263
:100190009BDF8FE891E00197F1F700C0000088E253
:1001A000ADDF87EC90E00197F1F700C0000088E038
:1001B000A5DF87EC90E00197F1F700C0000081E037
:1001C0009DDF8FED9EE20197F1F700C0000086E011
:1001D00095DF87EC90E00197F1F700C000008CE01C
:1001E0008DDF87EC90E00197F1F700C000000895E3
:1001F000CF93DF9300D000D0CDB7DEB7982F907F9C
:10020000292F2D60298399609A8320E1829FC00164
:100210001124982F9D609B8389608C8344E050E07B
:10022000BE016F5F7F4F809100016BD08111F6CFCF
:100230000F900F900F900F90DF91CF91089590E461
:10024000899F600D1124862F806858CF0895CF9321
:10025000DF93EA01F4DF8881882329F02196C8DF43
:1002600089918111FCCFDF91CF91089582E08ABB03
:1002700010929B0088E080939A0086E080939D0016
:100280001092980087E680939900089588E48093FF
:1002900070000895E4E7F0E0108294EA9083908182
:1002A0009923ECF790917100987F9830A1F4809396
:1002B000730084E880937400E4E7F0E08081882391
:1002C000ECF790917100987F983139F081E090348B
:1002D00029F480E0089581E0089580E008958093F6
:1002E000730084E880937400E4E7F0E08081882361
:1002F000ECF790917100987F81E0983209F480E0EA
:100300000895CF92DF92FF920F931F93CF93DF93C5
:100310006B018A01BFDFF82E811117C0011511058D
:1003200081F0E6010C0D1D1D8991D9DF811110C0EE
:100330008FE99FE00197F1F700C000000C171D073F
:1003400099F784E98093740005C0FF24F39402C0F8
:10035000FF24F3948F2DDF91CF911F910F91FF9088
:10036000DF90CF9008958CE19CE09BBD8ABD2FEF7C
:1003700083ED90E3215080409040E1F700C0000001
:1003800088EE93E09BBD8ABD2FEF83ED90E3215073
:1003900080409040E1F700C0000008958CE19CE0AF
:1003A00099BD88BD2FEF83ED90E3215080409040B0
:1003B000E1F700C0000088EE93E099BD88BD2FEF03
:1003C00083ED90E3215080409040E1F700C00000B1
:1003D00008958CE19CE090937900809378002FEF52
:1003E00083ED90E3215080409040E1F700C0000091
:1003F00008951F920F920FB60F9211248F939F931F
:1004000081E090E090933801809337019F918F9124
:100410000F900FBE0F901F9018951F920F920FB65E
:100420000F9211248F939F9381E090E09093360177
:10043000809335019F918F910F900FBE0F901F9069
:1004400018951BB888E18AB986E0809395001092D0
:10045000900087E689B9789408955F9BFECF8CB1B0
:100460000895CF93DF93CDB7DEB7A0970FB6F8947A
:10047000DEBF0FBECDBF80EE87BB8AEA8FBD8AE1AB
:100480008EBD8FE19EE497BD86BDDBDF10926A00D2
:1004900080EA8ABF80EC89BF7894E8DE56DE85E08A
:1004A000E1E0F1E0DE01119601900D928A95E1F70D
:1004B000FE0136968BE0DF011D928A95E9F78AE00E
:1004C000E1E1F1E0DE01519601900D928A95E1F7AC
:1004D000FE017B9686E0DF011D928A95E9F7AE0169
:1004E0004F5F5F4F60E080E0B2DEAE014F5E5F4F76
:1004F00060E081E0ACDE41E251E060E081E0A7DE57
:1005000087E0E6E2F1E0DE01119601900D928A9516
:10051000E1F7AE014F5F5F4F60E080E098DE01E001
:1005200010E06894EE24E1F8F12C80913201909172
:1005300033010197D1F791DF809334018091340129
:10054000813641F4109331010093300110932F0153
:1005500000932E0180913401823641F410933101D1
:1005600000933001F0922F01E0922E018091300132
:10057000909131010197C9F680912E0190912F0140
:100580008130910549F00297F1F480913501909105
:100590003601892B81F016C0809137019091380186
:1005A000892B39F4E0DE8091370190913801892B55
:1005B000C9F30FDF08C0F2DE80913501909136015A
:1005C000892BC9F306DF109238011092370110927F
:0C05D000360110923501A9CFF894FFCF3E
:1005DC004E313233340000000000000000000000F7
:1005EC000041546D65676131323800000000000035
:0E05FC0000746573740031313131313100000B
:00000001FF
