:1000000045C000009AC00000ACC000004FC0000016
:100010004DC000004BC0000049C0000047C00000B8
:1000200045C0000043C0000041C000003FC00000C8
:100030003DC000003BC0000039C0000037C00000D8
:1000400035C0000033C0000031C000002FC00000E8
:100050002DC000002BC0000029C0000027C00000F8
:1000600025C0000023C0000021C000001FC0000008
:100070001DC000001BC0000019C0000017C0000018
:1000800015C0000013C0000011C0000011241FBEE5
:10009000CFEFD0E1DEBFCDBF21E0A0E0B1E001C0F5
:1000A0001D92AA30B207E1F77CD0C9C0A9CF8CE17C
:1000B0009CE09BBD8ABD2FEF83ED90E321508040F3
:1000C0009040E1F700C0000088EE93E09BBD8ABD40
:1000D0002FEF83ED90E3215080409040E1F700C086
:1000E000000008958CE19CE099BD88BD2FEF83ED61
:1000F00090E3215080409040E1F700C0000088EE7E
:1001000093E099BD88BD2FEF83ED90E321508040AF
:100110009040E1F700C0000008958CE19CE09093CE
:100120007900809378002FEF83ED90E32150804099
:100130009040E1F700C0000008951F920F920FB6A3
:100140000F9211248F939F9381E090E09093090187
:10015000809308019F918F910F900FBE0F901F9079
:1001600018951F920F920FB60F9211248F939F93A1
:1001700081E090E090930701809306019F918F9119
:100180000F900FBE0F901F9018951BB888E18AB989
:1001900086E0809395001092900087E689B9789464
:1001A000089580EE87BB8AEA8FBD8AE18EBD8FE11C
:1001B0009EE497BD86BDE9DF8AE080936A001ABE9F
:1001C00083E089BF789480910401909105010197A3
:1001D000D1F780910201909103010197A1F78091DD
:1001E0000001909101018130910549F00297F1F4ED
:1001F0008091060190910701892B81F016C08091B2
:10020000080190910901892B39F451DF809108018F
:1002100090910901892BC9F380DF08C063DF8091C9
:10022000060190910701892BC9F377DF109209012C
:10023000109208011092070110920601C4CFF894A1
:02024000FFCFEE
:00000001FF
